{
  "_format": "hh3-artifact-1",
  "contractName": "Todolist",
  "sourceName": "contracts/TodoList.sol",
  "abi": [
    {
      "inputs": [],
      "stateMutability": "nonpayable",
      "type": "constructor"
    },
    {
      "inputs": [
        {
          "internalType": "uint256",
          "name": "_id",
          "type": "uint256"
        }
      ],
      "name": "completeTask",
      "outputs": [],
      "stateMutability": "nonpayable",
      "type": "function"
    },
    {
      "inputs": [
        {
          "internalType": "string",
          "name": "_name",
          "type": "string"
        }
      ],
      "name": "createTask",
      "outputs": [],
      "stateMutability": "nonpayable",
      "type": "function"
    },
    {
      "inputs": [
        {
          "internalType": "uint256",
          "name": "_id",
          "type": "uint256"
        }
      ],
      "name": "deleteTask",
      "outputs": [],
      "stateMutability": "nonpayable",
      "type": "function"
    },
    {
      "inputs": [
        {
          "internalType": "uint256",
          "name": "_id",
          "type": "uint256"
        }
      ],
      "name": "getTask",
      "outputs": [
        {
          "components": [
            {
              "internalType": "uint256",
              "name": "id",
              "type": "uint256"
            },
            {
              "internalType": "string",
              "name": "name",
              "type": "string"
            },
            {
              "internalType": "bool",
              "name": "isCompleted",
              "type": "bool"
            }
          ],
          "internalType": "struct Todolist.Task",
          "name": "",
          "type": "tuple"
        }
      ],
      "stateMutability": "view",
      "type": "function"
    },
    {
      "inputs": [],
      "name": "getTasksIds",
      "outputs": [
        {
          "internalType": "uint256[]",
          "name": "",
          "type": "uint256[]"
        }
      ],
      "stateMutability": "view",
      "type": "function"
    },
    {
      "inputs": [],
      "name": "getUpdatedTask",
      "outputs": [
        {
          "components": [
            {
              "internalType": "uint256",
              "name": "id",
              "type": "uint256"
            },
            {
              "internalType": "string",
              "name": "name",
              "type": "string"
            },
            {
              "internalType": "bool",
              "name": "isCompleted",
              "type": "bool"
            }
          ],
          "internalType": "struct Todolist.Task",
          "name": "",
          "type": "tuple"
        }
      ],
      "stateMutability": "view",
      "type": "function"
    },
    {
      "inputs": [
        {
          "internalType": "uint256",
          "name": "_id",
          "type": "uint256"
        },
        {
          "internalType": "string",
          "name": "name",
          "type": "string"
        }
      ],
      "name": "updateTask",
      "outputs": [],
      "stateMutability": "nonpayable",
      "type": "function"
    }
  ],
  "bytecode": "0x6080604052348015600e575f5ffd5b505f80556109fb8061001f5f395ff3fe608060405234801561000f575f5ffd5b506004361061007a575f3560e01c806347ce82d71161005857806347ce82d7146100d1578063560f3192146100d957806386533f6c146100ec578063e1e29558146100ff575f5ffd5b8063111002aa1461007e5780631d65e77e1461009357806325bbfadb146100bc575b5f5ffd5b61009161008c36600461061d565b61012d565b005b6100a66100a1366004610657565b6101d4565b6040516100b3919061066e565b60405180910390f35b6100c46102bf565b6040516100b391906106c3565b6100a6610315565b6100916100e7366004610657565b6103f3565b6100916100fa366004610705565b6104c8565b61009161010d366004610657565b5f908152600160208190526040909120600201805460ff19169091179055565b604080516060810182525f8054808352602080840186815284860184905291835260019081905293909120825181559051919283929082019061017090826107cd565b50604091909101516002918201805460ff19169115159190911790555f805482546001810184559282527f405787fa12a823e0f2b7631cc41b3ba8828b3321ca811111fa75cd3aa3bb5ace909201829055806101cb8361089f565b91905055505050565b6101f860405180606001604052805f8152602001606081526020015f151581525090565b5f828152600160208181526040928390208351606081019094528054845291820180549184019161022890610749565b80601f016020809104026020016040519081016040528092919081815260200182805461025490610749565b801561029f5780601f106102765761010080835404028352916020019161029f565b820191905f5260205f20905b81548152906001019060200180831161028257829003601f168201915b50505091835250506002919091015460ff16151560209091015292915050565b6060600280548060200260200160405190810160405280929190818152602001828054801561030b57602002820191905f5260205f20905b8154815260200190600101908083116102f7575b5050505050905090565b61033960405180606001604052805f8152602001606081526020015f151581525090565b60408051606081019091526003805482526004805460208401919061035d90610749565b80601f016020809104026020016040519081016040528092919081815260200182805461038990610749565b80156103d45780601f106103ab576101008083540402835291602001916103d4565b820191905f5260205f20905b8154815290600101906020018083116103b757829003601f168201915b50505091835250506002919091015460ff161515602090910152919050565b5f818152600160208190526040822082815591906104139083018261052c565b50600201805460ff191690555f5b6002548110156104c457816002828154811061043f5761043f6108b7565b905f5260205f200154036104bc576002805461045d906001906108cb565b8154811061046d5761046d6108b7565b905f5260205f20015460028281548110610489576104896108b7565b5f9182526020909120015560028054806104a5576104a56108e4565b600190038181905f5260205f20015f905590555050565b600101610421565b5050565b5f828152600160208190526040909120016104e382826107cd565b505f82815260016020819052604090912080546003908155909160049061050c908401826108f8565b506002918201549101805460ff191660ff90921615159190911790555050565b50805461053890610749565b5f825580601f10610547575050565b601f0160209004905f5260205f20908101906105639190610566565b50565b5b8082111561057a575f8155600101610567565b5090565b634e487b7160e01b5f52604160045260245ffd5b5f82601f8301126105a1575f5ffd5b813567ffffffffffffffff8111156105bb576105bb61057e565b604051601f8201601f19908116603f0116810167ffffffffffffffff811182821017156105ea576105ea61057e565b604052818152838201602001851015610601575f5ffd5b816020850160208301375f918101602001919091529392505050565b5f6020828403121561062d575f5ffd5b813567ffffffffffffffff811115610643575f5ffd5b61064f84828501610592565b949350505050565b5f60208284031215610667575f5ffd5b5035919050565b60208152815160208201525f6020830151606060408401528051806080850152806020830160a086015e5f60a0828601015260408501511515606085015260a0601f19601f8301168501019250505092915050565b602080825282518282018190525f918401906040840190835b818110156106fa5783518352602093840193909201916001016106dc565b509095945050505050565b5f5f60408385031215610716575f5ffd5b82359150602083013567ffffffffffffffff811115610733575f5ffd5b61073f85828601610592565b9150509250929050565b600181811c9082168061075d57607f821691505b60208210810361077b57634e487b7160e01b5f52602260045260245ffd5b50919050565b601f8211156107c857805f5260205f20601f840160051c810160208510156107a65750805b601f840160051c820191505b818110156107c5575f81556001016107b2565b50505b505050565b815167ffffffffffffffff8111156107e7576107e761057e565b6107fb816107f58454610749565b84610781565b6020601f821160018114610830575f83156108165750848201515b600184901b5f19600386901b1c198216175b8555506107c5565b5f84815260208120601f198516915b8281101561085f578785015182556020948501946001909201910161083f565b508482101561087c57868401515f19600387901b60f8161c191681555b50505050600190811b01905550565b634e487b7160e01b5f52601160045260245ffd5b5f600182016108b0576108b061088b565b5060010190565b634e487b7160e01b5f52603260045260245ffd5b818103818111156108de576108de61088b565b92915050565b634e487b7160e01b5f52603160045260245ffd5b818103610903575050565b61090d8254610749565b67ffffffffffffffff8111156109255761092561057e565b610933816107f58454610749565b5f601f821160018114610962575f8315610816575081850154600184901b5f19600386901b1c19821617610828565b5f8581526020808220868352908220601f198616925b838110156109985782860154825560019586019590910190602001610978565b50858310156109b557818501545f19600388901b60f8161c191681555b5050505050600190811b0190555056fea26469706673582212201340fa202f5b563fcb4123971d66e78a8cb9d36c732093f6db5d23d63a381c3b64736f6c634300081c0033",
  "linkReferences": {},
  "deployedLinkReferences": {},
  "immutableReferences": {},
  "inputSourceName": "project/contracts/TodoList.sol",
  "buildInfoId": "solc-0_8_28-0292d345fd799f5eba22d4a24392b77f4a9ee97e"
}